{
  "_format": "hh-sol-artifact-1",
  "contractName": "Deploy",
  "sourceName": "contracts/Deploy.sol",
  "abi": [
    {
      "inputs": [
        {
          "internalType": "uint256",
          "name": "_stateValue",
          "type": "uint256"
        }
      ],
      "stateMutability": "nonpayable",
      "type": "constructor"
    },
    {
      "inputs": [],
      "name": "getStateValue",
      "outputs": [
        {
          "internalType": "uint256",
          "name": "_stateValue",
          "type": "uint256"
        }
      ],
      "stateMutability": "view",
      "type": "function"
    },
    {
      "inputs": [
        {
          "internalType": "uint256",
          "name": "_stateValue",
          "type": "uint256"
        }
      ],
      "name": "setStateValue",
      "outputs": [],
      "stateMutability": "nonpayable",
      "type": "function"
    }
  ],
  "bytecode": "0x608060405234801561001057600080fd5b506040516102063803806102068339818101604052810190610032919061007a565b80600081905550506100a7565b600080fd5b6000819050919050565b61005781610044565b811461006257600080fd5b50565b6000815190506100748161004e565b92915050565b6000602082840312156100905761008f61003f565b5b600061009e84828501610065565b91505092915050565b610150806100b66000396000f3fe608060405234801561001057600080fd5b50600436106100365760003560e01c8063b3cd40881461003b578063c9388d6914610057575b600080fd5b610055600480360381019061005091906100c3565b610075565b005b61005f61007f565b60405161006c91906100ff565b60405180910390f35b8060008190555050565b60008054905090565b600080fd5b6000819050919050565b6100a08161008d565b81146100ab57600080fd5b50565b6000813590506100bd81610097565b92915050565b6000602082840312156100d9576100d8610088565b5b60006100e7848285016100ae565b91505092915050565b6100f98161008d565b82525050565b600060208201905061011460008301846100f0565b9291505056fea264697066735822122029a29075a4ec2fd5aa5ef30b6edd2d85e82535229afee66dc14276d2decfc97664736f6c63430008130033",
  "linkReferences": {},
  "deployedLinkReferences": {}
}