{
  "_format": "hh-sol-artifact-1",
  "contractName": "Mapping",
  "sourceName": "contracts/Mapping.sol",
  "abi": [
    {
      "inputs": [
        {
          "internalType": "address",
          "name": "",
          "type": "address"
        }
      ],
      "name": "balances",
      "outputs": [
        {
          "internalType": "uint256",
          "name": "",
          "type": "uint256"
        }
      ],
      "stateMutability": "view",
      "type": "function"
    },
    {
      "inputs": [
        {
          "internalType": "address",
          "name": "user",
          "type": "address"
        }
      ],
      "name": "deleteBalances",
      "outputs": [],
      "stateMutability": "nonpayable",
      "type": "function"
    },
    {
      "inputs": [
        {
          "internalType": "address",
          "name": "user",
          "type": "address"
        },
        {
          "internalType": "uint256",
          "name": "amount",
          "type": "uint256"
        }
      ],
      "name": "setBalances",
      "outputs": [],
      "stateMutability": "nonpayable",
      "type": "function"
    }
  ],
  "bytecode": "0x608060405234801561001057600080fd5b506102b8806100206000396000f3fe608060405234801561001057600080fd5b50600436106100415760003560e01c806327e235e31461004657806328e69b16146100765780636fc5d73e14610092575b600080fd5b610060600480360381019061005b91906101b5565b6100ae565b60405161006d91906101fb565b60405180910390f35b610090600480360381019061008b9190610242565b6100c6565b005b6100ac60048036038101906100a791906101b5565b61010d565b005b60006020528060005260406000206000915090505481565b806000808473ffffffffffffffffffffffffffffffffffffffff1673ffffffffffffffffffffffffffffffffffffffff168152602001908152602001600020819055505050565b6000808273ffffffffffffffffffffffffffffffffffffffff1673ffffffffffffffffffffffffffffffffffffffff1681526020019081526020016000206000905550565b600080fd5b600073ffffffffffffffffffffffffffffffffffffffff82169050919050565b600061018282610157565b9050919050565b61019281610177565b811461019d57600080fd5b50565b6000813590506101af81610189565b92915050565b6000602082840312156101cb576101ca610152565b5b60006101d9848285016101a0565b91505092915050565b6000819050919050565b6101f5816101e2565b82525050565b600060208201905061021060008301846101ec565b92915050565b61021f816101e2565b811461022a57600080fd5b50565b60008135905061023c81610216565b92915050565b6000806040838503121561025957610258610152565b5b6000610267858286016101a0565b92505060206102788582860161022d565b915050925092905056fea2646970667358221220a0a96a5c20b3cb47e2bae89199f42e2aa5013d3f85018054435e60bdcef0dc7364736f6c63430008130033",
  "linkReferences": {},
  "deployedLinkReferences": {}
}