{
  "_format": "hh-sol-artifact-1",
  "contractName": "Variable",
  "sourceName": "contracts/Variable.sol",
  "abi": [
    {
      "inputs": [],
      "stateMutability": "nonpayable",
      "type": "constructor"
    },
    {
      "inputs": [],
      "name": "addressValue",
      "outputs": [
        {
          "internalType": "address",
          "name": "",
          "type": "address"
        }
      ],
      "stateMutability": "view",
      "type": "function"
    },
    {
      "inputs": [],
      "name": "byteValue",
      "outputs": [
        {
          "internalType": "bytes32",
          "name": "",
          "type": "bytes32"
        }
      ],
      "stateMutability": "view",
      "type": "function"
    },
    {
      "inputs": [],
      "name": "defaultAddressValue",
      "outputs": [
        {
          "internalType": "address",
          "name": "",
          "type": "address"
        }
      ],
      "stateMutability": "view",
      "type": "function"
    },
    {
      "inputs": [],
      "name": "defaultByteValue",
      "outputs": [
        {
          "internalType": "bytes32",
          "name": "",
          "type": "bytes32"
        }
      ],
      "stateMutability": "view",
      "type": "function"
    },
    {
      "inputs": [],
      "name": "defaultValue",
      "outputs": [
        {
          "internalType": "uint256",
          "name": "",
          "type": "uint256"
        }
      ],
      "stateMutability": "view",
      "type": "function"
    }
  ],
  "bytecode": "0x60a06040526001600360006101000a81548173ffffffffffffffffffffffffffffffffffffffff021916908373ffffffffffffffffffffffffffffffffffffffff1602179055507f307831320000000000000000000000000000000000000000000000000000000060055534801561007657600080fd5b50607b6080818152505060805161024a6100986000396000505061024a6000f3fe608060405234801561001057600080fd5b50600436106100575760003560e01c80631a298e0f1461005c578063478ba7901461007a578063b3ce581714610098578063e1d16b83146100b6578063e93ed4c8146100d4575b600080fd5b6100646100f2565b6040516100719190610169565b60405180910390f35b6100826100f8565b60405161008f9190610169565b60405180910390f35b6100a06100fe565b6040516100ad919061019d565b60405180910390f35b6100be610104565b6040516100cb91906101f9565b60405180910390f35b6100dc61012a565b6040516100e991906101f9565b60405180910390f35b60055481565b60045481565b60015481565b600360009054906101000a900473ffffffffffffffffffffffffffffffffffffffff1681565b600260009054906101000a900473ffffffffffffffffffffffffffffffffffffffff1681565b6000819050919050565b61016381610150565b82525050565b600060208201905061017e600083018461015a565b92915050565b6000819050919050565b61019781610184565b82525050565b60006020820190506101b2600083018461018e565b92915050565b600073ffffffffffffffffffffffffffffffffffffffff82169050919050565b60006101e3826101b8565b9050919050565b6101f3816101d8565b82525050565b600060208201905061020e60008301846101ea565b9291505056fea264697066735822122047f89d1ef4f037a3bfb73e78d2f43c4c8f500d5b7e5c89506437c960df20b62364736f6c63430008130033",
  "linkReferences": {},
  "deployedLinkReferences": {}
}