{
  "_format": "hh-sol-artifact-1",
  "contractName": "Function1",
  "sourceName": "contracts/Function1.sol",
  "abi": [
    {
      "inputs": [],
      "name": "externalFunction",
      "outputs": [],
      "stateMutability": "nonpayable",
      "type": "function"
    },
    {
      "inputs": [],
      "name": "function1",
      "outputs": [],
      "stateMutability": "nonpayable",
      "type": "function"
    },
    {
      "inputs": [],
      "name": "publicFunction",
      "outputs": [],
      "stateMutability": "nonpayable",
      "type": "function"
    },
    {
      "inputs": [],
      "name": "stateValue",
      "outputs": [
        {
          "internalType": "uint256",
          "name": "",
          "type": "uint256"
        }
      ],
      "stateMutability": "view",
      "type": "function"
    }
  ],
  "bytecode": "0x6080604052601e60005534801561001557600080fd5b50610440806100256000396000f3fe608060405234801561001057600080fd5b506004361061004c5760003560e01c80631676cf2e1461005157806329a719641461006f5780633a32b549146100795780637b5d520b14610083575b600080fd5b61005961008d565b604051610066919061030e565b60405180910390f35b610077610093565b005b6100816100da565b005b61008b61011a565b005b60005481565b6000601e90506100d76040518060400160405280600a81526020017f66756e6374696f6e21210000000000000000000000000000000000000000000081525061018c565b50565b6101186040518060400160405280600881526020017f65787465726e616c00000000000000000000000000000000000000000000000081525061018c565b565b610122610225565b3073ffffffffffffffffffffffffffffffffffffffff16633a32b5496040518163ffffffff1660e01b8152600401600060405180830381600087803b15801561016a57600080fd5b505af115801561017e573d6000803e3d6000fd5b5050505061018a610265565b565b610222816040516024016101a091906103b9565b6040516020818303038152906040527f41304fac000000000000000000000000000000000000000000000000000000007bffffffffffffffffffffffffffffffffffffffffffffffffffffffff19166020820180517bffffffffffffffffffffffffffffffffffffffffffffffffffffffff83818316178352505050506102a5565b50565b6102636040518060400160405280600881526020017f696e7465726e616c00000000000000000000000000000000000000000000000081525061018c565b565b6102a36040518060400160405280600781526020017f707269766174650000000000000000000000000000000000000000000000000081525061018c565b565b6102bc816102b46102bf6102e0565b63ffffffff16565b50565b60006a636f6e736f6c652e6c6f679050600080835160208501845afa505050565b6102eb819050919050565b6102f36103db565b565b6000819050919050565b610308816102f5565b82525050565b600060208201905061032360008301846102ff565b92915050565b600081519050919050565b600082825260208201905092915050565b60005b83811015610363578082015181840152602081019050610348565b60008484015250505050565b6000601f19601f8301169050919050565b600061038b82610329565b6103958185610334565b93506103a5818560208601610345565b6103ae8161036f565b840191505092915050565b600060208201905081810360008301526103d38184610380565b905092915050565b7f4e487b7100000000000000000000000000000000000000000000000000000000600052605160045260246000fdfea264697066735822122042535bbca9755755f31846c53fba10fe9da83584210339418cf2a6fbd3c53dad64736f6c63430008130033",
  "linkReferences": {},
  "deployedLinkReferences": {}
}